:020000040000fa
:080000000002040000000000f2
:020000040000fa
:10040000cfa420000e7f22000e0188000000000013
:1004100000012000200288000c00070080a52100b8
:100420000100200011000700000020000000e00093
:10043000020032000000020000000000781d0200ef
:10044000000000000040da000000fe004440a90067
:10045000c00020000000e000030032000000200087
:10046000a00188004440a800000006009101880017
:10047000800078000000eb0015003700e2804000ab
:1004800032a0b4009101ba00e280400032a0b40072
:100490009102ba00e280400032a0b4000002eb00fa
:1004a000472bde00f507b200602ce10004003a00a3
:1004b0000059eb008301e900fdff3e000400370016
:1004c0006128e100010032000082eb000400070017
:1004d0001101ba000200e000e8ff3a000000060047
:1004e0003159ba008301e9000c0032002159ba00e9
:1004f0008301e900080032000400e00003003a0034
:10050000e280400032a0b400f5ff370011d9ba00f4
:100510008301e900faff3a008100e800e180400031
:1005200032a0b400000006000040da000000fe0027
:1005300000c0da00000006000a00fa00e20f5000d6
:1005400022003e0054528000e10f520006003200ab
:100550008723200046232000242320000523200099
:10056000e08f530004003a0087222000462220003a
:100570002422200005222000000028001500600031
:1005800003003a00800b780007002800958a73006a
:10059000054020009482620001003a0014a0a000ef
:1005a0008202780006003700940378000710b2003a
:1005b000fdff3200b103fb00070b78008502e90064
:1005c000e08f5200f8ff3a000800370034002000a6
:1005d000b4bf9f00c0bf9f00d1bf9f00e2bf9f007c
:1005e0006a805700d2ff07006fb9970002007800b9
:1005f0000080fa00000006006011b800f10037002a
:10060000889fbe008a9fbe008c1f78001c010700d7
:100610002301330003866c006450e1002e00320099
:100620006420e100330032006150e1002f0032000d
:100630006120e1003100320085855500eb07b000f4
:1006400009002000080420000500370008044400c9
:1006500089844c000a0031000603430087834b0065
:100660000001530081815b00f8ff33000203be00ec
:100670000800a0000804440089844c00f6ff3900fb
:10068000c639dd0083017300010032001300200031
:100690008904d1000884d3000998a3000500320022
:1006a0000800a7000300a0008904d1000884d3003b
:1006b0008b05e8008904d1000884d3000001eb0019
:1006c0000281d2000601070001f0a1000cf0a70092
:1006d00001f0a000fb0037006420e100fd003200c3
:1006e0000801be000200be00f7ff37006120e100f4
:1006f000f80032006000b800f3ff3700000020006f
:1007000001f82700f0ff3700140020001a0137001d
:1007100003f0a200889fbe008a9fbe008c1f780055
:10072000d7000700de0033006450e1004f003200c4
:100730006420e1005200320003826c0007003b009d
:100740000905d0000306d000820f54000c065d009e
:1007500002003900020032008901780003067800a7
:100760008582550004003d000003fd008103fd006b
:100770008502ea008b854200840f720002003b0074
:1007800060001000e08018006011b8000005eb0068
:100790007a28e1000a00390006007800c75ddd0014
:1007a000f707b200878075002d0037008281710045
:1007b0000a017800610560008180d1000080d300cb
:1007c0008502e900f9ff3b000604400087844800e9
:1007d00002003b0060041400e0841c000988a300b0
:1007e000070032008a81710082817100610164001a
:1007f0008904d1000884d3008b05e8001700370076
:100800000978a30013003a000b00e0001300340045
:100810008b05e9000804440089844c000a447400f4
:100820000978a3000d003a000b00e0000700340037
:100830008b05e9000804440089844c0001003a005b
:100840000b0020000978a300f7ff32000001eb0045
:1008500002003700828171000a017800a0000700c1
:100860000cf0a70001f0a000960037006420e10022
:1008700002003a00838f6c00960033000801be002e
:100880000200be008f003700889fbe008a9fbe0016
:100890008c1f78007a0007008100330003866c000b
:1008a0006450e100240032006420e100270032009f
:1008b0006150e100220032006120e100210032009d
:1008c0008b854200eb07b1000134b800003ab80054
:1008d0000804420089844a00013ab8000030b80098
:1008e0008880400009014a000400330000004000f5
:1008f00081804800020149008b05e900c909dd003b
:10090000830170000100320013002000c814de00d3
:100910004814dd004709de001200b200c808de00fe
:10092000088470006e00070001f0a1000cf0a70021
:1009300001f0a000630037006120e1006500320093
:100940000801be000200be00f7ff37006150e10061
:10095000fcff3a005f0037000001be00a100070065
:100960000470a70003f0a10003f8a30013003a00ed
:100970006509b10010003200090035006928e10066
:1009800002003500010028000000050000004000c2
:10099000818048008502e900fcff3a000000060063
:1009a000f88f4200050035008100d1000080d3009f
:1009b0008502e800fcff3a00000006008000eb0022
:1009c00000000500889fbe008a9fbe000082700064
:1009d0000402710004827100260032000004be008f
:1009e0000200be006011b8006b09200095022000d3
:1009f0000182cf000a0039000541b1000082cf001a
:100a0000070039000541b1000982cf000400390018
:100a10000541b1000882cf00010039000541b10055
:100a200005425200120032000a003b008281710030
:100a3000610164008100d1000080d3008984d3006b
:100a40000884d3008b05e8000442e800f7ff3a0071
:100a5000070037000804440089844c000000480067
:100a6000818048008b05e9000442e900f9ff3a0063
:100a70001b0007004f05be004f04be00000006002b
:100a80000004be00570007000003be000405be00be
:100a90000200be0053000700844f750000000600ee
:100aa0000200be006450e100050036006420e10051
:100ab000020036000968a30001003a000800be00e9
:100ac0000160a0004f0678004f05be004f04be0035
:100ad00000000600f0ff2f00f1ff2700f9ff3700ac
:100ae00081002000618055000b003d000b002000bc
:100af00061fe2f000100e1001d00340082817100c1
:100b0000610164008904d1000884d3000000e8007a
:100b1000faff3a00710020006100640003007000d9
:100b2000020060000900320061044400e0844c00cf
:100b30000988a500050032008b05e8006808e1007f
:100b400002003a008904d1000884d300f20f20008b
:100b50000258e10005003d00c75ddd00f907b20065
:100b60008980750008007800000006000bf8270057
:100b70008b00780000000500889fbe008a9fbe00a1
:100b8000841f7800beff07004f007800110033007b
:100b9000f0ff2f00838f6c0006003b00040565000a
:100ba0000a00a7000800370009f0a6001000200086
:100bb00008003700820f5400838f5c000300390067
:100bc0001000200001003e000000200009f0a700f6
:100bd0000000ea004f05be004f04be000000e00028
:100be00000000600c70ade00f107b200f50fb200f0
:100bf00008003200e1cf4200020032000170a00084
:100c000024000500810f7000010032000408050077
:100c100044000500810f700002003a001400050036
:100c20008502e9000000400081c04800fcff3b0055
:100c30000170a000240005002800fa00889fbe0073
:100c40008a9fbe008c9fbe0003866b0020030700b6
:100c50000028a30064003a000128a30067003a00be
:100c60000008a30062003a000108a30065003a00f2
:100c70001e009000be08900081064000ed3fb100cc
:100c8000f4805700ee019000111ab8008e09900010
:100c9000311bb8009e099000311cb800511db800ee
:100ca000f485570046000700fe0190003a00070057
:100cb0008b85e8003e0007008e0990004000070089
:100cc000ee019000340007008b85e8003800070033
:100cd0008e099000400007009e0990001b18b80084
:100ce000890440000a854800fe0190003400070096
:100cf0008b85e80038000700ee0190003000070007
:100d00008e0990001b18b800890440000a8548002d
:100d10000a98a30008003a000402420085824a00b3
:100d200006034b0087834b0008044c0089844c0069
:100d30000a054d008d06e900848272008502730069
:100d40004c3add00850272000100320015002000df
:100d5000443ade001400b2004538de00cb45dd0029
:100d60000b007000c540de00cb4ddd008b807000b5
:100d70004549de00cb55dd000b017100c551de0099
:100d80000d037800eb02070003f0a1000cf0a700b0
:100d900003f0a000e20237001b18b80085024000f3
:100da00006834800e0834b0060044c0007003700d6
:100db0001b18b8000603400087834800faff37007d
:100dc0001b18b8008703400008844800e0844c00ea
:100dd00060054d00000006001b18b8000804400024
:100de00089844800faff37000108a300c9023a00cd
:100df0005800be005801be00e3ff37000008a30002
:100e0000c4023a0009047800f9ff37008103780032
:100e100074ff07000001be006000b8000478a30062
:100e200013003a006220e10015003e000d00390079
:100e30008301d1000281d3008180d3008301d100de
:100e40000281d3008180d3008301d1000281d300cd
:100e50008180d3000538b000c42add00f300b20061
:100e60008381720007f0a70003f0a00000000600d5
:100e7000f3ff2700f2ff2f006110b900fbff3700de
:100e800003ff2700f7ff37008f1fd100d5020700af
:100e90008f87e9000000e00000000600801feb00e3
:100ea000d00207008f87e9000000e0000000060084
:100eb0001400fa00889fbe008a9fbe008c9fbe006f
:100ec0000005be000206be00680047000c90be0090
:100ed0000a90be00ec0207006400e1001a00320034
:100ee00016003e006100e1001a0032006e0490001e
:100ef000fe0490000e0b90009e0b90006011b80055
:100f00009e0590000b38b100d50120008281710050
:100f1000610164008703d1000683d3008984d30074
:100f20000884d3008502e900f8ff3a00ecfe0700d0
:100f30000df0a70001f0a00079023700f1ff2700b3
:100f4000f0ff2f007602370001f827000000200094
:100f5000f7ff37006000b800f5ff37001400fa0013
:100f6000889fbe008a9fbe008c9fbe00040678004a
:100f70000004be000205be00680047000a90be00e3
:100f80000890be00c00207006200e1000800be0039
:100f90000a01be00040020000b003a001e0290006f
:100fa000e43fb1006e009000fe0090000e0990003a
:100fb0009e099000f300b20005fe230085817100b8
:100fc0000bf0a70003f0a000040e780054023700d5
:100fd000809feb00830207008f87e9000000e0009c
:100fe000000006002800fa00889fbe008a9fbe000d
:100ff0008c9fbe0007067800878669000c003b00c6
:10100000030478008704780008f0a10009f0a1002b
:10101000840f5000858f5800860f5900890f5c009f
:10102000030033000cf0a20001003a000cf0a10014
:10103000270207006400e1005f00320078014700ea
:101040006408e100610032006c01470074855700bc
:101050003200be001201be003a04be001a05be00f6
:101060001e039000be0a90008503530006003d0059
:101070000004fd008104fd000205fd008305fd0064
:101080008703ea00050378000df8a300040032008e
:1010900060041400e0841c0060051d00e0851d0054
:1010a0006022b8007d0320000d38e1008006eb00cf
:1010b0000b0039004433dd00f300b20083017300fc
:1010c00039003700848272000d027800e106640066
:1010d0008b85d1000a85d3008984d3000884d3008e
:1010e0008703e900f7ff3b000800400089804800c3
:1010f0000a0149008b81490004003b006000100098
:10110000e080180060011900e08119000358a30075
:10111000090032008d8272008482720061026000d8
:101120008301d1000281d3008180d3000080d300ed
:101130000603e8001b0037000348a30017003a002d
:101140000600e000170034000603e9000d00a300cc
:101150000000480081804800020149008381490065
:101160000348a3000f003a000600e0000900340025
:101170000603e900000040008180480002014900a8
:101180008381490001003a000003eb000348a300fb
:10119000f5ff32006022b80002003700848272003e
:1011a00061826600e301070003f0a1000cf0a700d4
:1011b00003f0a000da013700640147006408e10091
:1011c00002003a000df8a300d2013a003200be003e
:1011d0001201be00d20137001400fa00889fbe0041
:1011e0008a9fbe008c9fbe000004be000205be00a8
:1011f000680047000a90be000890be002202070067
:101200000070a7000bf0a1000bf8a30020003a002b
:101210009e0990000e099000fe0090006e00900064
:101220009e0290003443200084825200bc013200b0
:101230000a003c00b4fc2f000428e1001400340034
:101240008301d1000281d3008180d3000080d300cc
:101250008502e800faff3a00b1013700b40020002f
:101260000428e10007003c000000400081804800a5
:1012700002014900838149008502e900faff3a0032
:10128000a7013700030028000200200001003700fa
:101290006011b8006000b800a10137002800fa0012
:1012a000889fbe008a9fbe008c9fbe0003866b0095
:1012b000870107006400e100440032006408e10097
:1012c0004a0032006100e100460032006108e1009e
:1012d00049003200ec0647006000b8003d02be0045
:1012e0003d03be00f48657006011b8003d04be0007
:1012f0003d05be007d0320000b0037000000a0006c
:101300008d06e900130032000402420085824a0083
:1013100006034b0087834b0000004000818048009b
:1013200002014900838149000802520089825a0063
:101330000a035b008b835b00f0ff3b000802420066
:1013400089824a000a034b008b834b008d06e9001b
:10135000edff3a008482720086827200f707b200c5
:101360008782720001003200150020001e049000e8
:101370003e0b900006035400e63fb0000368a30054
:10138000070032000000a7000500a0008301d10083
:101390000281d3008180d3000080d3000603e800df
:1013a0008301d1000281d3008180d3000080d3006b
:1013b0000002eb000482d2005e01070003f0a100ee
:1013c0000cf0a70003f0a0005501370064024700ad
:1013d0006408e1004f0132003400be003401be0059
:1013e000f6ff37006108e1004a0132006011b800e1
:1013f0006000b800f1ff370003ff27000200200063
:10140000fbff3700889fbe0000827000040271005d
:10141000048271002400320036432000c500200001
:101420008383cf000a0039000541b1008283cf00d9
:10143000070039000541b1008183cf000400390065
:101440000541b1008083cf00010039000541b100a2
:1014500085c353006022b800120032000a003b002e
:1014600084827200610260008301d1000281d30096
:101470008180d3000080d3000603e8008743e800a2
:10148000f7ff3a0007003700000040008180480065
:1014900002014900838149000603e9008743e9000e
:1014a000f9ff3a00230107004f04be0000000600c8
:1014b00007f0a200cbfe3700889fbe008a9fbe00c7
:1014c0003004be002005be000404440085844c00a6
:1014d00006054d0087854d000898be000a90be00a5
:1014e0000440e10005c8e10006d0e10007d8e100b2
:1014f00002003100680040001008e8004f05be00ff
:101500004f04be00000006001000fa00889fbe00d5
:101510008a9fbe000605be000404be003002be0065
:101520002003be00c4b79f00d5b79f00e6b79f0059
:10153000f7b79f000802520089825a000a035b0035
:101540008b835b0084bf9f0095bf9f00a6bf9f0059
:10155000b7bf9f000498be000698be00110020008f
:101560004fb29700dfb297006fb39700ffb39700b9
:10157000b2000700010039008000eb001088100065
:101580004f05be004f04be000080fa0000000600b8
:101590001400fa00889fbe008a9fbe008c9fbe0088
:1015a000790007000605be000404be000006eb003b
:1015b000ccb79f00bcb79f00acb79f009cb79f0003
:1015c0008cb79f000d0420004fb39700bfb2970067
:1015d000860343002fb29700e00f530004003d0044
:1015e0009b0007000f004000b3ff07000300370017
:1015f000970007000f004000c3ff0700cfb297001d
:1016000095bf9f00e08f520009003500650007007c
:1016100014002000050020006033b80000007200b4
:1016200081807200020173008381730056000700fd
:101630000c06e8008d0f5600e3ff3a001fba970032
:10164000e00f520005003d000802be000a03be0084
:1016500000fe2f000f00400097ff07004faa9700e1
:10166000e00f520008003a000fb497009fb49700b3
:101670002fb59700bfb59700d8b79f00e9b79f0077
:10168000fab79f008bbf9f00460007004f06be00c1
:101690004f05be004f04be000080fa0000000600a7
:1016a000881f780018002000881f7800b8ff070006
:1016b0008f87e9004f04780000000600801feb00d0
:1016c000b3ff07008f87e90000000600889fbe0077
:1016d0008a9fbe004100070007003d00440007004c
:1016e000180020004900070008003d002f000700f7
:1016f0000004eb00050037000004eb004300070086
:1017000002003d002900070018002000e4ff070048
:10171000e00f540001003200410007004f05be00f9
:101720004f04be0000000600889fbe008a9fbe00d6
:101730008c1f78002900070005003d002c000700e1
:101740001c0020003d00070007003d000500370099
:101750000006eb002d00070003003d006044b800c8
:101760006055b80013000700d4ff0700e00f5600d3
:10177000010032002a0007004f0678004f05be0026
:101780004f04be0000000600010007000000060034
:1017900090b79f00a1b79f00b2b79f00c3b79f004b
:1017a0000000060008000700000006006044b800c2
:1017b0006055b8000402540085825c0006035d0099
:1017c00087835d00000006001fb09700afb0970050
:1017d0003fb19700cfb1970000000600e00f500026
:1017e000e08f5800e00f5900e08f5900000006001c
:1017f0006044b8006055b8000000540081805c006f
:1018000002015d0083815d0000000600e00f5200d0
:10181000e08f5a00e00f5b00e08f5b0000000600e5
:101820006022b8006033b8000000520081805a0086
:1018300002015b0083815b00000006000820e100dc
:1018400009a8e1000ab0e1000bb8e10000000600c1
:101850004f2bde0087037300a7b79f004f23de00e6
:10186000858242008502730095b79f00ffaa97000a
:101870004f2bde00040242000402730084b79f0075
:101880006faa97004f23de00858242008502730015
:10189000f5af9f00ccff07004f18de0004024200a6
:1018a00000027200e4af9f00c7ff07000000400085
:1018b000818048000201490083814900b4ff07008c
:1018c0000802be000a03be0000fe2f000000060052
:1018d000680447000294be000094be00fc04470068
:1018e0008694be008494be0009007800660007005c
:1018f000080078006400070099007800814f7000ac
:101900000b003b000800be00860007004f00b1003e
:1019100003003700f3ff2700f2ff2f006110b9002a
:101920004f06be004f05be004f04be000080fa0007
:101930000000060018002000570020000804530093
:101940000d003d000600200097fc2f000740e1003d
:101950001e00340084827200610260008301d100a5
:101960000281d3008180d3000080d3000804e80006
:10197000f8ff3a004700200061046000050474008d
:10198000040464000d00320061004000e080480063
:1019900060014900e081490003b8a500070032005a
:1019a0000603e8006538e10004003a008301d10035
:1019b0000281d3008180d3000080d300f87f200013
:1019c0000830e10003003500080378006000b8002b
:1019d0006011b8004433dd00f300b20083017300ee
:1019e00000000600889fbe008a9fbe008c9fbe003c
:1019f0000404be000605be00809fbe00829fbe009c
:101a000056000700040678000800be000a01be0068
:101a100052000700840678004f03be004f02be004c
:101a20008d4f76007fb0970013003300f0ff2f003a
:101a30008b8f6b0006003b000d0666000c00a700b4
:101a40000a00370007f0a600100020000a00370047
:101a5000880f5200898f5a008a0f5b008b8f5b00c2
:101a6000030039001000200001003e0000002000ab
:101a700007f0a7000000ea004f06be004f05be00b9
:101a80004f04be0000000600800078005002be0037
:101a90005003be004439de00f700b200f37f20009f
:101aa00003016100090032000218e10016003a004b
:101ab0008501720083017300838173000008200098
:101ac00015003a0040002000130037008501720025
:101ad000830173008381730005003a0004a8be00ef
:101ae00006a8be00100020000b0037000201e9002c
:101af0000402420085824a0006034b0087834b00a4
:101b00000748a300f9ff32000740a00004a8be0068
:101b100006a8be00200020008000980092009800d7
:101b200000000600e48240001078a30007003200a5
:101b3000640240001178a3003400be001401be000e
:101b4000040032000330a700000006003500be008c
:101b50001501be000330a0000000060005ff2700ad
:101b600005826100070032000428e1000100320014
:101b7000240005000600070001003a0044000500ab
:101b80000408050002000700f9ff3a0014000500f0
:101b90006f8261008102700085027100850272000f
:101ba000000006000c00fa00889fbe0000047800c8
:101bb000f4ff2700d4bf9f008004eb0099bf9f0073
:101bc00088bf9f00a8bf9f00240c2000b4bf9f00c7
:101bd00078815700cfb097007080570060010700f0
:101be0000fba9700094a78000fba97000800520010
:101bf0004f04be000080fa00000006000c00fa004e
:101c0000889fbe0000047800f4ff2700d4bf9f0027
:101c10008004eb0099bf9f0088bf9f00a8bf9f0072
:101c2000240c2000b4bf9f0078815700cfb09700ec
:101c3000708057004a0107000fba9700094a7800e0
:101c40000fba9700080052004f04be000080fa004f
:101c500000000600889fbe00010478003802900052
:101c6000e20262008084eb003b0032000403780053
:101c70000620b2009802900002003a00e08f520065
:101c800035003a000490a0003404980080047800e5
:101c9000f90fb200e08f520002003a00a802900053
:101ca000050c7800ea8f540005003a000408b200e1
:101cb00003003a0088007800d0002000e5ff07000c
:101cc00018029000d8029000850f52000b003200dd
:101cd0000402e8001404980018027800094a780009
:101ce000040ce80015c0b30044a42000054a7800a5
:101cf000ea8f540018003a00050037008800780089
:101d000009407800170007008004780012003700af
:101d1000380290000410b2000f0032001801900049
:101d2000a80090004800900003fa070018029000f5
:101d3000840f500004003200380290000403b30006
:101d4000340498008084eb000002eb001404980037
:101d500028029000040c7800090078004f04be00af
:101d6000000006000200fa00889fbe00a0ff9f004e
:101d70000104780038029000840278000504b20063
:101d8000020032000000fb0035003700e202620072
:101d900005003a000403b3003404980015049800c9
:101da0000080eb002e003700d8049000e08f540034
:101db00006003a0012002000e6805700480090001c
:101dc000ddf907001904980023003700a8029000ed
:101dd000e08f520008003a0075a420002504980006
:101de000050c780025002000550498001504980083
:101df0000430a0003404980018019000a80090005e
:101e000048009000ccf90700280290008082eb0087
:101e100015049800affa9700054a7800040ce80012
:101e20002ffa9700ea4f52000b003a003802900058
:101e30000410b2000800320018019000a8009000c1
:101e400048009000bcf907000002eb001404980061
:101e5000a8029000050c78002ffa97000400fb0000
:101e60004f04be000080fa00000006000800fa00df
:101e7000889fbe008a9fbe000084fb00d4c6b300ca
:101e8000844f5000340036004b062000110009003a
:101e90000b84d80081057800720040004300dd000b
:101ea000698b2000008044006022b80006002000fa
:101eb00007fe23005001be004000be005efb07008d
:101ec0000002be000203be0084bf9f0095bf9f00ba
:101ed000a6bf9f00b7bf9f00aa0020001100090005
:101ee0008a85d80080057800e9854500c35ddd005e
:101ef0008b8544003b02be002b03be000fb8970049
:101f00009fb897002fb99700bfb997004afb070009
:101f10000002be000203be0084bf9f0095bf9f0069
:101f2000a6bf9f00b7bf9f00110009000a84d80018
:101f3000010478004344dd00888444003902be0077
:101f40002903be000fb897009fb897002fb99700dc
:101f5000bfb997001d003700ea4f5000130036004c
:101f6000aa002000110009000a84d80001057800a9
:101f7000690440004344dd00698b2000088444006c
:101f80006022b8000600200007fe23003800be00d3
:101f90002801be0028fb07004355dd008a84440069
:101fa0003902be002903be00080037004344dd00ab
:101fb000648b2000080442006022b8000600200064
:101fc00007fe23003800be002801be001afb0700f0
:101fd0004f05be004f04be000080fa00000006005e
:101fe0000800fa00889fbe008a9fbe00d4c6b300d6
:101ff000e04f500022003d000040ea000004fb00da
:10200000844f50000a0034004406200011000900eb
:102010000404d800a9002000110009008900d8009c
:10202000e9004000c308dd006a8b20002000370073
:10203000ea4f50000f003400a400200011000900f6
:102040000404d800690040004300dd00648b2000d8
:1020500000004200430cdd00080242005403be00b1
:102060004402be005001be004000be00f2fa07006c
:10207000370037004344dd00648b20003100370017
:102080000004fb00844f500023003400440620006d
:10209000110009000404d800a90020001100090063
:1020a0008900d800e9004000c308dd006a802000f4
:1020b000810045003102be002103be008b092000d3
:1020c0008a8545003b00be002b01be00dafa0700fe
:1020d0000002be000203be0084bf9f0095bf9f00a8
:1020e000a6bf9f00b7bf9f00110009000904d800d8
:1020f000010478004344dd00080545003a02be00b3
:102100002a03be000fb897009fb897002fb9970019
:10211000bfb99700d5ff3700ea4f500007003400e1
:10212000a4002000110009000404d8006900400048
:102130004300dd0064802000c5ff37004344dd001c
:1021400064802000080442003800be002801be0060
:102150004f05be004f04be000080fa0000000600dc
:102160008f03b000889fbe008a9fbe008c9fbe0078
:102170008e1f7800c0b79f00e1a79f00b2af9f00fd
:102180006000b8006011b800f0a79f0081af9f0009
:1021900092af9f00a3af9f000006eb00a0033700a3
:1021a000efa097008100e800e1a79f0054c2b300b0
:1021b000844f500006003a00810378008002eb0053
:1021c00001c3b30000c2b300b2c2b30007003700be
:1021d0000000fb00cfb097009efe0700e10f40001b
:1021e0008f0332000c06e8008d03370007027800e9
:1021f00037437800d3c2b300834f53000900320045
:1022000005003c00804f530008003200824f53000d
:102210000c003a0007003700814f530009003a00d4
:10222000060037000530a000f0ff37000500a000d1
:10223000eeff37000510a000ecff37000520a000de
:10224000eaff3700e2836200010032000500a100ce
:10225000e8836200010032000520a1008603fb0034
:102260000703b100e98f530010003e00040378001b
:102270000002eb0005007800840278006a2ab900a9
:10228000b603fb000703b100848243000602780016
:102290009603fb000703b100e98f5300f7ff3600f8
:1022a00085b79f00800278000a0037008003eb00aa
:1022b00087b79f00a7c2b300874f530005003a00bd
:1022c0003fa89700c0007800b0af9f0081b79f0083
:1022d0000402e800e6c2b300944f130015003a0070
:1022e00005e0a00064435300d44f13000300320004
:1022f000040378000007eb00080037003fa99700af
:1023000042077800b2af9f000402e800c7c6b300de
:102310000b0037006a70b90000874300060278009e
:10232000b603fb000703b100e98f5300f9ff360045
:10233000f6ff370005c0a0000007eb00f3ff3700f1
:1023400034437800e4a79f00874f53001600320003
:10235000c4c6b300844f530009003c0069425200d8
:10236000844f53005d00320063424200844f5300ab
:1023700013003200e04f53002e0332007700370085
:1023800054c7b300844f53007900320063424200c7
:10239000844f53000d00320065425200844f5300b9
:1023a0006e003a000c0037007080620006012000c9
:1023b000010032000600280086827200e0ff37002c
:1023c000c67f9f0005a0a0006b003700c67f9f005e
:1023d0000570a00068003700c67f9f003fab9700e4
:1023e00046027800b6af9f0004047800e00f520068
:1023f00001003a00c8a22000080378000002eb00a8
:10240000010037000402e800e6437a00e0cf530001
:10241000fcff3a0084047800e00f5700030032000c
:10242000890f5700010031008e0478008006eb0010
:102430008fb39700898f53000100360089865300bf
:102440006887620014003a0007003700cfb0970099
:1024500000022000fffd0700e10f400001003200f4
:102460000c06e8008d06e900e08f5600f7ff3a0001
:102470008086eb0008003700080278003400fb007b
:1024800004047800cfb09700f2fd0700e10f400090
:10249000010032000c06e800090278008404e9001b
:1024a000e00f5200f4ff3a00e00f5700dc02320068
:1024b00007003700cfb0970000022000e5fd0700bd
:1024c000e10f4000010032000c06e8008d06e90033
:1024d000e08f5600f7ff3a00d10237003fa897007f
:1024e00040027800b0af9f0004007800cf80de008b
:1024f0000101780082017800d0b79f00e1b79f000a
:10250000f2b79f0083bf9f004800de00480add004d
:1025100000007200c07f9f007083620009003200db
:10252000e04f500007003200e14f4000050032004c
:10253000d07f9f002feb9700e67f9f0029002000af
:1025400003003700afeb9700d77f9f0019002000f2
:10255000d8fb2f000f044400afff3700c67f9f0059
:10256000c8fb2f000f04440019002000aaff370009
:10257000c67f9f00050cb300d5b79f0004702000f4
:102580005fb0970004026000ac013200040021003b
:1025900004026000010032006e002000dfb09700ee
:1025a00070826000050032003fa897004003be0023
:1025b0004002be00b0af9f00060037003fa9970061
:1025c0004200be00b2af9f0010fa07000002be003a
:1025d0000203be00c4af9f00d5af9f00e6af9f00cf
:1025e000f7af9f006022b8006033b8004fa8970093
:1025f000dfa897006fa99700ffa9970022fa0700ac
:10260000e00f50000c003d004fa89700dfa8970096
:102610006fa99700ffa9970003f0a200c0af9f0029
:10262000d1af9f00e2af9f00f3af9f00dfb09700f4
:102630003100b300d1b79f000002eb0084a79f00d8
:102640006022b8006033b8004fa89700dfa8970059
:102650006fa99700ffa9970010fa0700e00f50003c
:10266000350032004fa89700dfa897006fa99700a8
:10267000ffa997000efa070002fc2f000f0141008e
:1026800036fa07000fa097000000e9006300b900c8
:10269000a4002000110009000400d80080a79f00ba
:1026a000e00f500002003d000000e90080a79f00fd
:1026b0000fa497000840ea0049fe07004faa9700c0
:1026c000dfaa97006fab9700ffab97005af907009e
:1026d0000002be000203be00f4a79f0085af9f006a
:1026e00096af9f00a7af9f006022b80006002000b1
:1026f00007ff2300e4f90700e00f500002003d004f
:102700000804e9000b0037006022b8000600200032
:10271000470224007fa097008fa897001fa9970069
:10272000afa997002afa0700e00f50000200350019
:102730000804e80088a79f00f80f57000f003c002e
:102740000e407800c9fd07000002be000203be0073
:102750004fa89700dfa897006fa99700ffa99700df
:1027600020fa07000002be000203be00c4af9f00b3
:10277000d5af9f00e6af9f00f7af9f000fa4970073
:10278000e90f540015003c006022b8006033b80027
:102790004fa89700dfa897006fa99700ffa997009f
:1027a000bef90700e00f5000320032004fa897003a
:1027b000dfa897006fa99700ffa9970086fa070086
:1027c000e00f5000e08f5800e00f5900e08f5900f3
:1027d00028003a00e10f54002600340004002000d5
:1027e00005002e00b6e02200170124007fa097000c
:1027f0008fa897001fa99700afa99700a2f907001b
:10280000e00f500002003d00730454000100370047
:102810007204540088a79f000fc09700f0fd0700c6
:102820000002be000203be00f4a79f0085af9f0018
:1028300096af9f00a7af9f004fa89700dfa8970013
:102840006fa99700ffa9970094fa070062fa0700a2
:102850000205be000004be006000b8006011b800b0
:10286000c0af9f00d1af9f00e2af9f00f3af9f00ca
:10287000170037004fa89700dfa897006fa99700af
:10288000ffa9970054fa07000205be000004be002d
:10289000dcfa07000002be000203be004fa897004a
:1028a000dfa897006fa99700ffa9970000fb07001a
:1028b0000002be000203be00c4af9f00d5af9f0060
:1028c000e6af9f00f7af9f000002eb0084a79f00d8
:1028d000e196200010c0b300080037003102be00ae
:1028e0003103be000440e10005c8e10006d0e1006c
:1028f00007d8e100030039000040e800f44f500021
:10290000f6ff3a00c07f9f000fa297008fb297009a
:10291000048252000e0252000000fb0080065200aa
:10292000e00f5700010032008d06e9005fb3970009
:1029300063026300010032008d06e900dfb39700f7
:10294000648263001d003200e282630061826300e2
:10295000e08f520006003200b0022000e00f52006b
:10296000010032000080e800cfb09700040037007b
:10297000e00f52000e003200cfb09700000220009e
:10298000b4fc0700e10f4000090032000c06e8002b
:1029900007003700cfb0970000032000adfc070010
:1029a000e10f4000010032000c06e8008d06e9004e
:1029b000e08f5600f7ff3c00320037005fb0970011
:1029c000680260000a003a0007003700cfb09700a5
:1029d000000220009ffc0700e10f400001003200d0
:1029e0000c06e8008d06e900e08f5600f7ff3c007a
:1029f000dfb09700e282600061826000e08f5200e9
:102a000006003200b0022000e00f52000100320048
:102a10000080e800cfb0970016003700e00f5200aa
:102a200018003200cfb097000002200011003700dc
:102a30008502fb00c32add0062962000850241006a
:102a40005503be004502be000800be000a01be00dc
:102a500013fb0700a4002000050020006033b8002d
:102a600016fb07000403200000024200cfb09700cd
:102a70000400780077fc0700e10f400001003200fd
:102a80000c06e8004f7a97008442e900c57f9f005a
:102a9000e04f5200e6ff3a0008003700cfb0970041
:102aa000000320006bfc0700e10f40000100320032
:102ab0000c06e8000804e90088a79f000fa497000f
:102ac000e00f5400f5ff3c00f20f57000300340004
:102ad00024c1b300c47f9f0001003700ce7f9f0058
:102ae0004f7a97008402fb0005075700e04f520021
:102af00006003200cfb09700e002200055fc07002e
:102b0000e10f4000010032000c06e8004f7897000a
:102b100033fd07000002be000203be004fa897006d
:102b2000dfa897006fa99700ffa9970042f8070058
:102b3000a9f90700220037008502fb00c32add0047
:102b400064962000850242003500be002501be00cb
:102b500080b79f0091b79f00a2b79f00b3b79f00b7
:102b60000203be000002be000800be000a01be0053
:102b7000cbfa0700a4002000050020006033b80055
:102b8000cefa07000403200000024200cfb09700f5
:102b9000040078002ffc0700e10f40000100320024
:102ba0000c06e8000fb297009fb297002fb3970072
:102bb000bfb397000800be000a01be00bffa0700bd
:102bc0000205be000004be004f7a97008442e9006f
:102bd000c57f9f00e04f5200d7ff3a000700370043
:102be000cfb09700000320001afc0700e10f40005f
:102bf000010032000c06e8000e07e900e00f570064
:102c0000f7ff3a00dfb09700e8826000040132006d
:102c1000e08f560002013400cfb097000002200080
:102c20000cfc0700e10f4000010032000c06e80038
:102c30008d06e900f8ff3a00f90037005fb1970010
:102c4000e00f510005003d00bfa997004305be00fd
:102c50004304be00b3af9f00150037005fb3970079
:102c6000f00263000c0032003fa997004200be0052
:102c7000b2af9f0090a79f00a1a79f00b4a79f009d
:102c8000c4a79f001fa49700afa497003fa597007b
:102c9000cfa59700060037003faa970044047800ac
:102ca000b4af9f00090020000a0020000b002000a4
:102cb000e00f570007003a001e002000e00f54000c
:102cc000e08f5c00e00f5d00e08f5d0001003200ee
:102cd0000007eb00dfb29700050cb200c5af9f0004
:102ce00004082000848f520010003200040c2000e1
:102cf000848f520021003a00e596200014c0b300f2
:102d00003500be003501be000040e10001c8e10011
:102d100002d0e10003d8e100170039000442e800c6
:102d2000f44f5200f6ff3a001300370014c0b3000e
:102d300000012000010020006011b8000040e10007
:102d400001c8e10002d0e10003d8e1000a00390027
:102d5000460020000000d0008180d2000281d20015
:102d60008381d2000603e900faff3a000442e8003a
:102d7000f04f5200f1ff3a00c47f9f00cf7b9700d5
:102d80000702fb008e0f520002003d00ce7f9f0025
:102d900003003700840f570001003d00040778004e
:102da0008fb09700e08f5000050032005fb19700b0
:102db00063026100020032008100e90081b79f00d8
:102dc00004002400dfb19700048261000800320093
:102dd0000fb297008e0f5200030034000e02520013
:102de00084b79f00020037008002eb0085b79f0088
:102df0004f7b97000602fb008006eb008fb3970025
:102e0000848f530001003400848653005fb0970024
:102e1000640260001c003200e20260006102600097
:102e2000e08f520006003200b0022000e00f520096
:102e3000010032000080e800cfb0970004003700a6
:102e4000e00f520006003200cfb0970000022000d1
:102e500080fb0700e10f4000010032000c06e80093
:102e6000e08f560028003200cfb09700000320000a
:102e700078fb0700e10f4000010032000c06e8007b
:102e80008d06e900f6ff3700e08f56000b00320098
:102e9000dfb097006882600008003a00cfb097006a
:102ea000000220006bfb0700e10f40000100320030
:102eb0000c06e8008d06e900f8ff3a005fb19700c4
:102ec000e202610061026100e08f52000600320000
:102ed000b0022000e00f5200010032000080e80044
:102ee000cfb0970004003700e00f52000600320018
:102ef000cfb097000002200056fb0700e10f400012
:102f0000010032000c06e8000e02e9004323dd0058
:102f1000659620008502430085b79f004222dd00b0
:102f20002f0037000e07e900cfa997000408200002
:102f3000848f510010003200040c2000848f510057
:102f40001b003a000fb097003002be002003be0005
:102f50000800be000a01be00d1f90700a40020004d
:102f6000050020006033b800d4f9070004c3b300a3
:102f7000044240000d0037000802be000a03be00f4
:102f80005fa097000000e900050033008703d1002f
:102f90000683d3008582d3000482d300f9ff370073
:102fa0006f02620031a3200061427a00c47f9f005b
:102fb0004f7997000200fb00cfb0970025fb070078
:102fc000e10f4000010032000c06e8008fb19700cd
:102fd000e881510083b79f005fa29700640252000e
:102fe000d4a79f00e00f5700ceff3a005fb39700d1
:102ff000e80263000a003200e08f56000800340047
:10300000cfb097000002200012fb0700e10f400044
:10301000010032000c06e8008d06e900f8ff3a00d6
:10302000efa3970017407800c07f9f00e04f50004b
:103030005bfc3a000c0078004f0778004f06be009a
:103040004f05be004f04be008f03b1000000060014
:020000040000fa
:020000040001f9
:0457f800ad7b000085
:020000040000fa
:020000040001f9
:0457fc003f3f00002b
:020000040000fa
:100008009402000094020000940200009402000090
:100018009402000094020000940200009402000080
:100028009402000094020000940200009402000070
:100038009402000094020000940200009402000060
:100048009402000094020000940200009402000050
:100058009402000094020000940200009402000040
:10006800940200009402000094020000a01e000008
:100078009402000094020000940200009402000020
:100088009402000094020000940200009402000010
:100098009402000094020000940200009402000000
:1000a80094020000940200009402000094020000f0
:1000b80094020000940200009402000094020000e0
:1000c80094020000940200009402000094020000d0
:1000d80094020000940200009402000094020000c0
:1000e80094020000940200009402000094020000b0
:1000f80094020000940200009402000094020000a0
:10010800940200009402000094020000940200008f
:10011800940200009402000094020000940200007f
:10012800940200009402000094020000940200006f
:10013800940200009402000094020000940200005f
:10014800940200009402000094020000940200004f
:10015800940200009402000094020000940200003f
:10016800940200009402000094020000940200002f
:10017800940200009402000094020000940200001f
:10018800940200009402000094020000940200000f
:1001980094020000940200009402000094020000ff
:1001a80094020000940200009402000094020000ef
:1001b80094020000940200009402000094020000df
:1001c80094020000940200009402000094020000cf
:1001d80094020000940200009402000094020000bf
:1001e80094020000940200009402000094020000af
:0801f8009402000094020000d3
:020000040000fa
:10020800940200009402000094020000940200008e
:10021800940200009402000094020000940200007e
:10022800940200009402000094020000940200006e
:10023800940200009402000094020000940200005e
:10024800940200009402000094020000940200004e
:10025800940200009402000094020000940200003e
:10026800940200009402000094020000a01e000006
:10027800940200009402000094020000940200001e
:10028800940200009402000094020000940200000e
:1002980094020000940200009402000094020000fe
:1002a80094020000940200009402000094020000ee
:1002b80094020000940200009402000094020000de
:1002c80094020000940200009402000094020000ce
:1002d80094020000940200009402000094020000be
:1002e80094020000940200009402000094020000ae
:1002f800940200009402000094020000940200009e
:10030800940200009402000094020000940200008d
:10031800940200009402000094020000940200007d
:10032800940200009402000094020000940200006d
:10033800940200009402000094020000940200005d
:10034800940200009402000094020000940200004d
:10035800940200009402000094020000940200003d
:10036800940200009402000094020000940200002d
:10037800940200009402000094020000940200001d
:10038800940200009402000094020000940200000d
:1003980094020000940200009402000094020000fd
:1003a80094020000940200009402000094020000ed
:1003b80094020000940200009402000094020000dd
:1003c80094020000940200009402000094020000cd
:1003d80094020000940200009402000094020000bd
:1003e80094020000940200009402000094020000ad
:0803f8009402000094020000d1
:020000040000fa
:10305000253400002e3200006600000025330000f9
:083060002e66000000000000d4
:020000040000fa
:103068001800fa00881f7800200f9800310f980088
:103078006022b80044079800550798006022b800fd
:1030880064079800750798006022b800048fbe0096
:103098006022b80024079800350798006022b8001d
:1030a800040f9800150f980002002800f33f240031
:1030b8002e089000be0890004ff507000002be00e1
:1030c800040f9800150f980018c0b30002002000e4
:1030d80003f823000e0890009e08900088f507006a
:1030e80000027800e00f5200010035000044eb00b8
:1030f800e04f5400080032000400200005f82300c7
:1031080024079800350798000e0a90009e0a900040
:10311800048fbe000b0037000400200005f82300d0
:10312800048fbe000e0990009e0990000000200048
:103138000100240074f507000002be00240798006f
:103148003507980002002000030824001e00be0076
:10315800cbf507000002be00440798005507980009
:1031680002002000030824002e009000be009000fa
:10317800c3f507000002be006407980075079800b1
:103188000002eb00140c88004e009000de00900056
:10319800eff507000002be0004027800040c880066
:1031a8008461a800240c80000400a1000410a00081
:1031b8000420a000240c88000002eb00440c8800c6
:1031c8006e009000fe009000e1f507000002be00ce
:1031d80004027800340c88008a61a800540c80002e
:1031e8000400a1000410a0000420a000540c8800d2
:1031f8000002eb005408880044002000740888008e
:1032080004032800940888004f0478000080fa001e
:10321800000006002000fa00881f7800600f980060
:10322800710f98006022b80044079800550798006d
:103238006022b80064079800750798006022b800fb
:10324800048fbe006022b800240798003507980054
:103258006022b800040f9800150f9800020028009b
:10326800f33f24006e089000fe089000e2f4070087
:103278000002be00040f9800150f980018c0b30094
:103288000200200003f823000e0890009e0890001a
:103298001bf5070000027800e00f5200010035001e
:1032a8000044eb00e04f5400080032000400200006
:1032b80005f8230024079800350798000e0a9000a7
:1032c8009e0a9000048fbe000b0037000400200007
:1032d80005f82300048fbe000e0990009e09900097
:1032e800000020000100240007f507000002be00ce
:1032f80024079800350798000200200003082400de
:103308001e00be005ef507000002be0044079800dc
:10331800550798004e009000de0090008cf50700dd
:103328000002be0004027800140c88004e009000d1
:10333800de00900086f507000002be000402780057
:10334800040c880018c0b3006011b8002e0090006b
:10335800be009000eaf4070000027800e00f520077
:10336800010035000044eb00e04f54000300320038
:103378006022b80024079800350798000200200052
:10338800832c24001e00be003df507000002be008d
:1033980074034700849fbe00e4822900841f7800dc
:1033a8000600780013fa0700e68757008000eb0054
:1033b80010002000a40107007402470004007800f0
:1033c800bb01070050022000b001070002002000e6
:1033d800030824002e009000be00900028f5070086
:1033e8000002be0064079800750798006e00900000
:1033f800fe00900056f507000002be0004027800a7
:10340800440c88006e009000fe00900050f5070004
:103418000002be0004027800340c880018c0b30013
:103428006011b8002e009000be009000b4f40700b0
:1034380000027800e00f5200010035000044eb0064
:10344800e04f5400030032006022b80024079800bf
:103458003507980002002000832c24002e009000dd
:10346800be00900006f507000002be007403470086
:10347800849fbe00e4822900841f7800060078003b
:10348800dcf90700e687570074024700040078005b
:1034980087010700500220007c0107004f047800d4
:0834a8000080fa00000006009c
:020000040000fa
:1034b00000080000060000000200000000000000fc
:1034c000000000000608000060010000020000008b
:1034d0000000000000000000f03f000000000000bd
:1034e00000002400400000000000000000594000df
:1034f00000000000000040008f40000000000000bd
:103500000088c30040000000000000006af840008e
:1035100000000000008084002e4100000000000038
:10352000d01263004100000000008400d7974100e2
:10353000000000000065cd00cd410000000020002b
:103540005fa002004200000000801d00af15440093
:103550000000000040593e00294600000000000025
:103560000000f0007f0000000000000000f07f007d
:103570000000000000000000f07f000000000000dc
:103580000000f0007f0000000000000000f07f005d
:103590000000000000000000f07f000000000000bc
:1035a0000000f0007f0000000000000000f07f003d
:1035b0000000000000000000f07f0000000000009c
:1035c0000000f0003f00000000a0990099b93f0002
:1035d0000000000040e17a00843f00000000e000ad
:1035e0004d6250003f00000000e0e200361a3f004c
:1035f0000000000080b5f800e43e00000000a000dc
:10360000f7c6b0003e00000000a0f200d77a3e00ee
:1036100000000000e08e7900453e00000000e00060
:103620000b2e11003e00000000e0df007cdb3d00bf
:103630000000000000a19c00c73b0000000000004b
:103640004c48b40039000000000020006ca1370095
:10365000000000000000000000000000000000006a
:10366000000000000000000000000000000000005a
:10367000000000000000000000000000000000004a
:10368000000000000000000000000000000000003a
:10369000000000000000000000000000000000002a
:1036a0000000000000000000440a000006000000c6
:1036b00000000000060a00002600000002000000d2
:1036c000450a000000450a00090000000002000051
:1036d000470a000000470a000e0201000000000037
:1036e00000000000000000000602020000000000d0
:1036f000060a00004a0a0000020000000200000062
:10370000010000002c0a0000180000000200000068
:10371000286e75006c6c29000030310032333400a3
:103720003536370038396100626364006566000031
:1037300066090000a0000000020000000100000077
:103740000000000000000a0000000000000000006f
:10375000006400000000000000000000e80300001a
:103760000000000000001000270000000000000022
:1037700000a08600010000000000000040420f0091
:10378000000000000000800096980000000000008b
:103790000000e100f50500000000000000ca9a00ea
:1037a0003b00000000000000e40b54000200000099
:1037b0000000e80076481700000000000010a50097
:1037c000d4e8000000000000a0724e0018090000bc
:1037d000000040007a10f3005a0000000080c6008c
:1037e000a47e8d000300000000c16f00f28623005c
:1037f000000000008a5d780045630100000064005d
:10380000a7b3b600e00d000000e889000423c7005c
:083810008a0000000000000026
:020000040000fa
:103818000200fa00000f78000401280084088800dc
:103828000002eb00340888001e02780004024200ff
:103838000402e9006408880084e0a9000000000090
:10384800250480000408200004826200e00f520072
:10385800fbff320011e1a90084e0a9000080fa0012
:10386800000006000400fa00004f780011079800d5
:103878009e42780061c262000482fb00610262001d
:103888004722dd0066168000f5f72f0085026300e9
:1038980004827200641688001e009000dcff070096
:1038a800ccc2a8001e009000d9ff0700ccc2a90016
:1038b8001e009000d6ff07000080fa0000000600f6
:1038c8000600fa00004f78001107980022079800b8
:1038d80065168000f4ff2000848262001e42780092
:1038e8000483fb00040f2000040263004822dd006b
:1038f80004827200641688001e0290000442780058
:10390800ae00900004407800d6ff070065168000de
:10391800f4ff2000848262001e4378000682fb00c8
:103928004c22dd0004827200641688001e0290009a
:1039380004427800ae00900004407800c9ff0700f8
:103948000080fa00000006000000fa00c8e2a900a2
:10395800c8c2a900c9e2a900c9c2a900c9a2a90090
:10396800c982a9000002eb0064168800cce2a90015
:10397800ccc2a90080a92300a5ff07006516800016
:10398800f4ff200084826200040023000482720095
:1039980064168800410021000040eb00b1ff0700d9
:1039a80065168000f4ff2000848262000400230072
:1039b8000482720064168800410620000040eb0073
:1039c800a8ff0700420620008000eb0020c3b300d8
:1039d800bbff0700820220008000eb0080c2b3001a
:1039e800b7ff0700820220008000eb0080c0b30010
:1039f800b3ff0700826620008000eb0010c0b30010
:103a0800afff0700820220008000eb0060c0b30017
:103a1800abff0700220320008000eb00c0c0b3000a
:103a2800a7ff07000080fa00000006000000fa0067
:103a3800025f20008000eb0010c0b300a0ff070069
:103a48000080fa00000006000200fa00004f78002b
:103a5800114798009e4278000582fb004622dd004f
:103a68008442780004c8b30084c272001e429000e9
:103a780004c27200820220008000eb00044078003b
:103a88008fff07000080fa00000006000200fa001d
:103a9800004f78001e4278008202200011002000aa
:103aa8000440780086ff07000080fa000000060046
:103ab8000200fa00000f7800050037001e027800a7
:103ac800144278001e0fe80004407800efff07005a
:103ad8001e02780014427800e04f5200f7ff3a00c7
:103ae8000080fa00000006000800fa00c902a900d8
:103af800c842a900c862a900c942a900c8a2a80072
:103b08006360a8008660a9009660a800c002a800ab
:103b18002c03a90065198000e4ff2f0004826200cd
:103b2800641988000002eb001419880014102000a2
:103b380024198800440e2200041988000002eb00b2
:103b4800441988000002eb008419880085a0a900a8
:103b580021e3a8007cff0700144080002540800076
:103b68000400be003efd07000000000004198000ac
:103b780061026200e00f5200fcff3200041880006e
:103b8800050020000400be0099f207000002be00f4
:103b9800144088002540880014408000254080009b
:103ba800849fbe0084822900841f78000e0078005c
:103bb800faf70700e68757008040eb000040eb006b
:103bc800a1ff07000e007800b9ff0700144080002d
:103bd800254080000400be008efd070004408000e0
:103be800cfa2de003600200007002000860f52001a
:103bf800878f5a004e003e00046001000300370022
:103c0800130037002500370035003700453680009f
:103c180004fe2f00048262004436880015368000b6
:103c280004fe2f00048262001436880015368000d6
:103c3800f40f2e0004826200143688005536800086
:103c480004fe2f00048262005436880038003700d2
:103c58004536800004fe2f00048262004436880046
:103c68001536800004fe2f00048262002401b30090
:103c78001436880015368000f40f2e000482620086
:103c8800143688005536800004fe2f000482620036
:103c98003401b300543688002500370045368000cb
:103ca80004fe2f0004826200443688001536800026
:103cb80004fe2f0004826200143688001536800046
:103cc800f40f2e00048262001436880055368000f6
:103cd80004fe2f0004826200543688001400370066
:103ce8004536800004fe2f00048262002401b300e0
:103cf800443688001536800004fe2f0004826200d6
:103d08001436880015368000f40f2e008482620075
:103d18000430210004827200143688005536800071
:103d280004fe2f0004826200543688000000000060
:103d3800000000008dff3700849fbe003400f800ab
:103d480004002000a40188000000fa008660a90091
:103d5800551680000402200004826200e00f520021
:103d68000900320004408000e30f520003003a00cb
:103d78000002eb0004408800030037000440800084
:103d88000402e800044088000080fa003400f900ca
:083d98004f02be0000400600ce
:00000001FF
